{"abi":[{"type":"function","name":"verify","inputs":[{"name":"key","type":"bytes","internalType":"bytes"},{"name":"data","type":"bytes","internalType":"bytes"},{"name":"signature","type":"bytes","internalType":"bytes"}],"outputs":[{"name":"","type":"bool","internalType":"bool"}],"stateMutability":"view"}],"bytecode":{"object":"0x6080604052348015600e575f80fd5b506103778061001c5f395ff3fe608060405234801561000f575f80fd5b5060043610610029575f3560e01c8063de8f50a11461002d575b5f80fd5b61004061003b366004610268565b610054565b604051901515815260200160405180910390f35b5f604082146100aa5760405162461bcd60e51b815260206004820152601d60248201527f496e76616c69642070323536207369676e6174757265206c656e67746800000060448201526064015b60405180910390fd5b604486146100fa5760405162461bcd60e51b815260206004820152601760248201527f496e76616c69642070323536206b6579206c656e67746800000000000000000060448201526064016100a1565b60405183359060208501359060048a01359060248b01359061016d90600290610126908c908c90610307565b602060405180830381855afa158015610141573d5f803e3d5ffd5b5050506040513d601f19601f820116820180604052508101906101649190610316565b8585858561017c565b9b9a5050505050505050505050565b604080516020808201889052818301879052606082018690526080820185905260a08083018590528351808403909101815260c0830182815261010084019094525f93909284929060e001818036833701905050905060208082018351602085016101005afa92508215610218578051600160f81b908290601f9081106102055761020561032d565b01602001516001600160f81b0319161492505b505095945050505050565b5f8083601f840112610233575f80fd5b50813567ffffffffffffffff81111561024a575f80fd5b602083019150836020828501011115610261575f80fd5b9250929050565b5f805f805f806060878903121561027d575f80fd5b863567ffffffffffffffff811115610293575f80fd5b61029f89828a01610223565b909750955050602087013567ffffffffffffffff8111156102be575f80fd5b6102ca89828a01610223565b909550935050604087013567ffffffffffffffff8111156102e9575f80fd5b6102f589828a01610223565b979a9699509497509295939492505050565b818382375f9101908152919050565b5f60208284031215610326575f80fd5b5051919050565b634e487b7160e01b5f52603260045260245ffdfea2646970667358221220155bed680d97eaffa87a22962681c9efb30ca34eaae2ba84818ac5cec9733d7664736f6c634300081a0033","linkReferences":{}},"methodIdentifiers":{"verify(bytes,bytes,bytes)":"de8f50a1"},"id":3}