{"abi":[{"type":"constructor","inputs":[{"name":"_oracle","type":"address","internalType":"contract DNSSEC"},{"name":"_ens","type":"address","internalType":"contract IENS"},{"name":"_defaultResolver","type":"address","internalType":"address"}],"stateMutability":"nonpayable"},{"type":"function","name":"defaultResolver","inputs":[],"outputs":[{"name":"","type":"address","internalType":"address"}],"stateMutability":"view"},{"type":"function","name":"ens","inputs":[],"outputs":[{"name":"","type":"address","internalType":"contract IENS"}],"stateMutability":"view"},{"type":"function","name":"getENS","inputs":[],"outputs":[{"name":"","type":"address","internalType":"address"}],"stateMutability":"view"},{"type":"function","name":"getOracle","inputs":[],"outputs":[{"name":"","type":"address","internalType":"address"}],"stateMutability":"view"},{"type":"function","name":"inceptions","inputs":[{"name":"","type":"bytes32","internalType":"bytes32"}],"outputs":[{"name":"","type":"uint32","internalType":"uint32"}],"stateMutability":"view"},{"type":"function","name":"oracle","inputs":[],"outputs":[{"name":"","type":"address","internalType":"contract DNSSEC"}],"stateMutability":"view"},{"type":"function","name":"proveAndClaim","inputs":[{"name":"name","type":"bytes","internalType":"bytes"},{"name":"input","type":"tuple[]","internalType":"struct DNSSEC.RRSetWithSignature[]","components":[{"name":"rrset","type":"bytes","internalType":"bytes"},{"name":"sig","type":"bytes","internalType":"bytes"}]}],"outputs":[],"stateMutability":"nonpayable"},{"type":"function","name":"proveAndClaimWithResolver","inputs":[{"name":"name","type":"bytes","internalType":"bytes"},{"name":"input","type":"tuple[]","internalType":"struct DNSSEC.RRSetWithSignature[]","components":[{"name":"rrset","type":"bytes","internalType":"bytes"},{"name":"sig","type":"bytes","internalType":"bytes"}]},{"name":"resolver","type":"address","internalType":"address"},{"name":"addr","type":"address","internalType":"address"}],"outputs":[],"stateMutability":"nonpayable"},{"type":"function","name":"supportsInterface","inputs":[{"name":"interfaceID","type":"bytes4","internalType":"bytes4"}],"outputs":[{"name":"","type":"bool","internalType":"bool"}],"stateMutability":"pure"},{"type":"event","name":"Claim","inputs":[{"name":"node","type":"bytes32","indexed":true,"internalType":"bytes32"},{"name":"owner","type":"address","indexed":true,"internalType":"address"},{"name":"dnsname","type":"bytes","indexed":false,"internalType":"bytes"},{"name":"inception","type":"uint32","indexed":false,"internalType":"uint32"}],"anonymous":false},{"type":"error","name":"NoOwnerRecordFound","inputs":[]},{"type":"error","name":"OffsetOutOfBoundsError","inputs":[{"name":"offset","type":"uint256","internalType":"uint256"},{"name":"length","type":"uint256","internalType":"uint256"}]},{"type":"error","name":"PermissionDenied","inputs":[{"name":"caller","type":"address","internalType":"address"},{"name":"owner","type":"address","internalType":"address"}]},{"type":"error","name":"PreconditionNotMet","inputs":[]},{"type":"error","name":"StaleProof","inputs":[]}],"bytecode":{"object":"0x60e060405234801561000f575f80fd5b5060405161193b38038061193b83398101604081905261002e91610062565b6001600160a01b0392831660a0529082166080521660c0526100ac565b6001600160a01b038116811461005f575f80fd5b50565b5f805f60608486031215610074575f80fd5b835161007f8161004b565b60208501519093506100908161004b565b60408501519092506100a18161004b565b809150509250925092565b60805160a05160c05161183b6101005f395f8181610189015261029101525f8181610162015281816101ad01526104d801525f8181610123015281816101d3015281816102f5015261045d015261183b5ff3fe608060405234801561000f575f80fd5b5060043610610090575f3560e01c80633f15457f116100635780633f15457f1461011e5780637dc0d1d01461015d578063828eab0e14610184578063833b1fce146101ab578063cc1d2cca146101d1575f80fd5b806301ffc9a71461009457806306963218146100bc57806325916d41146100d157806329d566301461010b575b5f80fd5b6100a76100a23660046112a0565b6101f7565b60405190151581526020015b60405180910390f35b6100cf6100ca3660046114b8565b61022d565b005b6100f66100df366004611538565b5f6020819052908152604090205463ffffffff1681565b60405163ffffffff90911681526020016100b3565b6100cf61011936600461154f565b61041b565b6101457f000000000000000000000000000000000000000000000000000000000000000081565b6040516001600160a01b0390911681526020016100b3565b6101457f000000000000000000000000000000000000000000000000000000000000000081565b6101457f000000000000000000000000000000000000000000000000000000000000000081565b7f0000000000000000000000000000000000000000000000000000000000000000610145565b7f0000000000000000000000000000000000000000000000000000000000000000610145565b5f6001600160e01b031982166301ffc9a760e01b148061022757506001600160e01b031982166305e86a8560e31b145b92915050565b5f805f61023a87876104d1565b91945092509050336001600160a01b038216146102805760405163380fd80960e21b81523360048201526001600160a01b03821660248201526044015b60405180910390fd5b5f6001600160a01b0386166102b5577f00000000000000000000000000000000000000000000000000000000000000006102b7565b855b6040516305ef2c7f60e41b815260048101869052602481018590526001600160a01b03848116604483015280831660648301525f60848301529192507f000000000000000000000000000000000000000000000000000000000000000090911690635ef2c7f09060a4015f604051808303815f87803b158015610338575f80fd5b505af115801561034a573d5f803e3d5ffd5b505050506001600160a01b03851615610411576001600160a01b03811661038457604051633c584f1360e21b815260040160405180910390fd5b60408051602081018690529081018490525f9060600160408051808303601f1901815290829052805160209091012062d5fa2b60e81b8252600482018190526001600160a01b03888116602484015290925083169063d5fa2b00906044015f604051808303815f87803b1580156103f9575f80fd5b505af115801561040b573d5f803e3d5ffd5b50505050505b5050505050505050565b5f805f61042885856104d1565b6040516306ab592360e01b815260048101849052602481018390526001600160a01b03828116604483015293965091945092507f0000000000000000000000000000000000000000000000000000000000000000909116906306ab5923906064016020604051808303815f875af11580156104a5573d5f803e3d5ffd5b505050506040513d601f19601f820116820180604052508101906104c991906115af565b505050505050565b5f805f805f7f00000000000000000000000000000000000000000000000000000000000000006001600160a01b031663bdf95fef876040518263ffffffff1660e01b815260040161052291906115f4565b5f60405180830381865afa15801561053c573d5f803e3d5ffd5b505050506040513d5f823e601f3d908101601f191682016040526105639190810190611679565b90925090505f61057388826106cf565b60ff16905061058488600183610706565b94505f6105b661059583600161171f565b6001848c516105a49190611732565b6105ae9190611732565b8b919061071f565b90506105c18161077b565b96505f87876040516020016105e0929190918252602082015260400190565b60408051808303601f1901815291815281516020928301205f818152928390529082205490925063ffffffff16850360030b121561063157604051632dd6a7af60e01b815260040160405180910390fd5b5f818152602081905260408120805463ffffffff191663ffffffff871617905561065b8b87610786565b90975090508061067e57604051630c4c1edf60e31b815260040160405180910390fd5b866001600160a01b0316827f87db02a0e483e2818060eddcbb3488ce44e35aff49a70d92c2aa6c8046cf01e28d886040516106ba929190611745565b60405180910390a35050505050509250925092565b5f6106e4836106df84600161171f565b610876565b8282815181106106f6576106f661176c565b016020015160f81c905092915050565b5f610715846106df848661171f565b5091016020012090565b60608167ffffffffffffffff81111561073a5761073a6112c7565b6040519080825280601f01601f191660200182016040528015610764576020820181803683370190505b5090506107748484835f866108a9565b9392505050565b5f610227825f6108e1565b5f806107a46040518060400160405280606081526020015f81525090565b6107bc855160056107b5919061171f565b8290610972565b50604080518082019091526005815264045f656e7360d81b60208201526107e49082906109e6565b506107ef81866109e6565b505f6107fb8582610a06565b90505b805151602082015110156108665781516108219061081b83610a61565b90610a82565b5f03610858575f8061083c878460a001518560c00151610bcf565b9250905081156108555794506001935061086f92505050565b50505b61086181610c3e565b6107fe565b505f8092509250505b9250929050565b81518111156108a5578151604051638a3c1cfb60e01b8152610277918391600401918252602082015260400190565b5050565b6108b7856106df838761171f565b6108c5836106df838561171f565b6108da82602085010185602088010183610d23565b5050505050565b5f806108ed84846106cf565b60ff169050805f0361090257505f9050610227565b5f61092185610911848761171f565b61091c90600161171f565b6108e1565b90505f61093a61093286600161171f565b879085610706565b604080516020810185905290810182905290915060600160405160208183030381529060405280519060200120935050505092915050565b60408051808201909152606081525f6020820152610991602083611780565b156109b9576109a1602083611780565b6109ac906020611732565b6109b6908361171f565b91505b60208084018390526040518085525f81529081840101818110156109db575f80fd5b604052509192915050565b60408051808201909152606081525f602082015261077483838451610d6c565b610a4e6040518060e00160405280606081526020015f81526020015f61ffff1681526020015f61ffff1681526020015f63ffffffff1681526020015f81526020015f81525090565b82815260c0810182905261022781610c3e565b6020810151815160609161022791610a799082610e3d565b8451919061071f565b5f610a8d8383610e9c565b15610a9957505f610227565b5f805f805f610aa8885f610ec0565b90505f610ab5885f610ec0565b90505b80821115610ae157859350610acd8987610f1a565b955081610ad98161179f565b925050610ab8565b81811115610b0a57849250610af68886610f1a565b945080610b028161179f565b915050610ae1565b5f82118015610b225750610b2089878a88610f3d565b155b15610b5757859350610b348987610f1a565b9550849250610b438886610f1a565b9450610b50600183611732565b9150610b0a565b855f03610b6d575f199650505050505050610227565b845f03610b835760019650505050505050610227565b610bc2610b9185600161171f565b610b9b8b876106cf565b60ff168a610baa87600161171f565b610bb48d896106cf565b8e949392919060ff16610f78565b9998505050505050505050565b5f805b82841015610c30575f610be586866106cf565b60ff169050610bf560018661171f565b94505f80610c04888885611052565b925090508115610c1c57935060019250610c36915050565b610c26838861171f565b9650505050610bd2565b505f9050805b935093915050565b60c08101516020820181905281515111610c555750565b5f610c67825f01518360200151610e3d565b8260200151610c76919061171f565b8251909150610c8590826110b7565b61ffff166040830152610c9960028261171f565b8251909150610ca890826110b7565b61ffff166060830152610cbc60028261171f565b8251909150610ccb90826110d3565b63ffffffff166080830152610ce160048261171f565b82519091505f90610cf290836110b7565b61ffff169050610d0360028361171f565b60a084018190529150610d16818361171f565b60c0909301929092525050565b5b601f811115610d44578151835260209283019290910190601f1901610d24565b8015610d6757815183516001602084900360031b1b5f1901801990921691161783525b505050565b60408051808201909152606081525f60208201528251821115610d8d575f80fd5b8351515f610d9b848361171f565b90508560200151811115610dbd57610dbd86610db88360026117b4565b6110ef565b85518051838201602001915f9180851115610dd6578482525b505050602086015b60208610610e165780518252610df560208361171f565b9150610e0260208261171f565b9050610e0f602087611732565b9550610dde565b5181515f1960208890036101000a0190811690199190911617905250849150509392505050565b5f815b83518110610e5057610e506117cb565b5f610e5b85836106cf565b60ff169050610e6b81600161171f565b610e75908361171f565b9150805f03610e845750610e8a565b50610e40565b610e948382611732565b949350505050565b5f815183511480156107745750508051602091820120825192909101919091201490565b5f805b83518310610ed357610ed36117cb565b5f610ede85856106cf565b60ff169050610eee81600161171f565b610ef8908561171f565b9350805f03610f075750610774565b610f1260018361171f565b915050610ec3565b5f610f2583836106cf565b60ff16610f3383600161171f565b610774919061171f565b5f610f488585610876565b610f528383610876565b610f60838384865103610706565b610f6e868687895103610706565b1495945050505050565b5f610f87876106df878961171f565b610f95846106df848661171f565b6020868801810190848601015f848810610faf5784610fb1565b875b90505f5b81811015611035575f610fc88286015190565b90505f610fd58386015190565b905080821461102b578284036020811015610ff95760200360031b91821c9190811c905b81831015611011575f19975050505050505050611048565b81831115611029576001975050505050505050611048565b505b5050602001610fb5565b50505050818561104591906117df565b90505b9695505050505050565b5f80602c83101561106757505f905080610c36565b61107185856110d3565b63ffffffff1663613d30781461108b57505f905080610c36565b6110ab61109985600461171f565b6110a3858761171f565b87919061110c565b91509150935093915050565b5f6110c7836106df84600261171f565b50016020015160f01c90565b5f6110e3836106df84600461171f565b50016020015160e01c90565b81516110fb8383610972565b5061110683826109e6565b50505050565b5f808261111a85602861171f565b1461112957505f905080610c36565b5f611135868686611142565b9097909650945050505050565b5f808383101561115657505f905080610c36565b5f6111618585611732565b905060408111806111725750855184115b1561118357505f9150819050610c36565b858501602001611194815f846111b4565b92506001820160011c6020035f518160031b1c9450505050935093915050565b5f611212565b811a5f602f8211603a831016156111d65750602f198101610227565b604782106040831116156111ef57506036198101610227565b6067821060608311161561120857506056198101610227565b5061010092915050565b5060018382018282161561124c5761122b5f86516111ba565b80855360018601955060018501945060ff81111561124a575f92508195505b505b808510156112985784516112616001826111ba565b61126b5f836111ba565b60041b17905060ff811115611283575f925050611298565b8085535060028501945060018401935061124c565b509392505050565b5f602082840312156112b0575f80fd5b81356001600160e01b031981168114610774575f80fd5b634e487b7160e01b5f52604160045260245ffd5b6040805190810167ffffffffffffffff811182821017156112fe576112fe6112c7565b60405290565b604051601f8201601f1916810167ffffffffffffffff8111828210171561132d5761132d6112c7565b604052919050565b5f67ffffffffffffffff82111561134e5761134e6112c7565b50601f01601f191660200190565b5f82601f83011261136b575f80fd5b813561137e61137982611335565b611304565b818152846020838601011115611392575f80fd5b816020850160208301375f918101602001919091529392505050565b5f82601f8301126113bd575f80fd5b8135602067ffffffffffffffff808311156113da576113da6112c7565b8260051b6113e9838201611304565b9384528581018301938381019088861115611402575f80fd5b84880192505b858310156114915782358481111561141e575f80fd5b88016040818b03601f1901811315611434575f80fd5b61143c6112db565b878301358781111561144c575f80fd5b61145a8d8a8387010161135c565b82525090820135908682111561146e575f80fd5b61147c8c898486010161135c565b81890152845250509184019190840190611408565b98975050505050505050565b80356001600160a01b03811681146114b3575f80fd5b919050565b5f805f80608085870312156114cb575f80fd5b843567ffffffffffffffff808211156114e2575f80fd5b6114ee8883890161135c565b95506020870135915080821115611503575f80fd5b50611510878288016113ae565b93505061151f6040860161149d565b915061152d6060860161149d565b905092959194509250565b5f60208284031215611548575f80fd5b5035919050565b5f8060408385031215611560575f80fd5b823567ffffffffffffffff80821115611577575f80fd5b6115838683870161135c565b93506020850135915080821115611598575f80fd5b506115a5858286016113ae565b9150509250929050565b5f602082840312156115bf575f80fd5b5051919050565b5f81518084528060208401602086015e5f602082860101526020601f19601f83011685010191505092915050565b5f60208083018184528085518083526040925060408601915060408160051b8701018488015f5b8381101561166b57888303603f190185528151805187855261163f888601826115c6565b91890151858303868b015291905061165781836115c6565b96890196945050509086019060010161161b565b509098975050505050505050565b5f806040838503121561168a575f80fd5b825167ffffffffffffffff8111156116a0575f80fd5b8301601f810185136116b0575f80fd5b80516116be61137982611335565b8181528660208385010111156116d2575f80fd5b8160208401602083015e5f60208383010152809450505050602083015163ffffffff81168114611700575f80fd5b809150509250929050565b634e487b7160e01b5f52601160045260245ffd5b808201808211156102275761022761170b565b818103818111156102275761022761170b565b604081525f61175760408301856115c6565b905063ffffffff831660208301529392505050565b634e487b7160e01b5f52603260045260245ffd5b5f8261179a57634e487b7160e01b5f52601260045260245ffd5b500690565b5f816117ad576117ad61170b565b505f190190565b80820281158282048414176102275761022761170b565b634e487b7160e01b5f52600160045260245ffd5b8181035f8312801583831316838312821617156117fe576117fe61170b565b509291505056fea264697066735822122085aa5f9172912abfbad0262b0c323bf9cf0d91543a82b890453f9cd11449f9e464736f6c63430008190033","linkReferences":{}},"methodIdentifiers":{"defaultResolver()":"828eab0e","ens()":"3f15457f","getENS()":"cc1d2cca","getOracle()":"833b1fce","inceptions(bytes32)":"25916d41","oracle()":"7dc0d1d0","proveAndClaim(bytes,(bytes,bytes)[])":"29d56630","proveAndClaimWithResolver(bytes,(bytes,bytes)[],address,address)":"06963218","supportsInterface(bytes4)":"01ffc9a7"},"id":7}